:040000000200333295
:03000B000204707C
:0300130002026383
:01001B0032B2
:030023000204BA1A
:03002B00020504C7
:05008C00751805C2001B
:0300910002002E3C
:05002E0012053A80FEFE
:04009400AA82AB830E
:08009800EA4B60047C018002C8
:0200A0007C00E2
:0700A200EC601F7C707D0083
:0800A900EC4D60047E018002B1
:0200B1007E00CF
:0A00B300EE60071CBCFFEF1D80EC9F
:0500BD001ABAFF011B4F
:0200C20080D4E8
:0100C4002219
:0300C50085829998
:0500C80010990280FB0D
:0100CD002210
:0C00CE003095093094063096032097020C
:0200DA00C290D2
:0100DC002201
:0700DD00AA82BA0002800AAA
:0500E400BA0102800CCE
:0500E900BA0216800EB2
:0700EE00C291D292D29322CD
:0700F500D291D292C29322C6
:0600FC00D291D293C292E2
:0101020022DA
:07010300AA827404B502009A
:09010A00402DEA2A2A900113732A
:070113000201220201270294
:06011A00012C020131027C
:020120000136A6
:05012200751B038012B3
:05012700751B04800DB2
:05012C00751B058008B1
:05013100751B028003B4
:03013600751B0135
:06013900751C0002042BFE
:07013F0005197405B5190054
:050146005003751900D3
:05014B00E519B51B00E1
:060150005004D2B280024F
:02015600C2B233
:0301580002022977
:0E015B00D2B50000000000000000000000000F
:0B0169000000000000000000C2B522F2
:0E017400AA8A758C00758A008A82120CADABC7
:0E01820082AC83ADF0FEC003C004C005C00611
:0E01900090E14875F08A743F120554AB82ACC2
:0E019E0083ADF0FEE58124FCF5818B828C831D
:0E01AC008DF0EE120CB8120CADAA82AB83AC33
:0E01BA00F0FDC002C003C004C005904396755E
:0E01C800F08B743C120554AA82AB83ACF0FDA0
:0E01D600E58124FCF5818A828B838CF0ED128A
:0901E4000CB8AA82100002801977
:0A01ED0075A0FF7463C0E0740DC03C
:0E01F700E07480C0E01206C2158115811581EA
:0102050022D6
:0E020600EA900D5393F5A07B00C002C0037474
:0A0214006DC0E0740DC0E07480C0FE
:0B021E00E01206C2E58124FBF58122FE
:07022900751C0112042B12E9
:02023000015B70
:0502320030B4FDD28C88
:0802370020B4FDC28C02017429
:09023F007580DA9002BC02009403
:090248007580AD9002BC02009427
:090251007580559000C80200946C
:09025A007580AA90019002009445
:0C026300C022C0E0C0F0C082C083C00216
:0E026F00C003C004C005C006C007C000C00127
:0C027D00C0D075D0007582011200DD7445
:0A0289007EC0E0740DC0E07480C078
:0E029300E01206C215811581158120944830B5
:0802A100954520960330970FEC
:0602A900309603209704CB
:0402AF007A0080024F
:0202B3007A01CE
:0302B500BA010685
:0602B8007580FF02039FA8
:0D02BE002096153097127580FF7582011291
:0902CB0001037582021201030215
:0202D400039F86
:0D02D6007580FF758203120103758204120A
:0502E300010302039F6E
:0C02E8002095533094503096032097046A
:0402F4007A0080020A
:0202F8007A0189
:0902FA00BA01067580AA02039FF7
:0D03030020960F20970C75805590019012E8
:05031000009402039FB0
:0D0315002096153097127580FF7582011239
:09032200010375820212010302BD
:02032B00039F2E
:0D032D007580FF75820312010375820412B2
:04033A0001038061DA
:09033E0020962C30970320950451
:040347007A008002B6
:02034B007A0135
:06034D00EA6003209404A5
:040353007A008002AA
:020357007A0129
:0E035900BA01117580FF7582011201037582D1
:06036700021201038032C6
:09036D0020972C30960320940423
:040376007A00800287
:02037A007A0106
:06037C00EA600320950475
:040382007A0080027B
:020386007A01FA
:0E038800BA01117580FF7582031201037582A0
:06039600041201038003C4
:03039C007580FF6A
:0E039F00D290D0D0D001D000D007D006D0052B
:0E03AD00D004D003D002D083D082D0F0D0E0B4
:0303BB00D022321B
:0E03BE00AA82758202C0021200DDD002BA616E
:0303CC0002803775
:0503CF00BA6202801E6D
:0503D400BA640280374D
:0503D900BA6602800F6E
:0503DE00BA6C0280145E
:0503E300BA7202801453
:0503E800BA732D801422
:0503ED007580AA8029C3
:0503F200758055802418
:0503F7007580AD801FC0
:0503FC007580DA801A93
:050401007580FF80156D
:0A04060074FB2518400F0518800B49
:08041000E518600715188003D0
:030418007580FFED
:03041B0002046276
:0D041E00D2AFD2ACD2A9D2ADD2AAC28A22EE
:0A042B00758901E51C7003D28C22D4
:07043500758CFE758A33226D
:0B043C00E51C7007758CFE758A3322EA
:07044700758CFE758A33225B
:0E044E00759850758700C298758921758BFDD1
:06045C00758DFDD28E2219
:0E04620075C900C2C9C2C8758CFC758A6622B5
:0C047000C022C0E0C0F0C082C083C00207
:0E047C00C003C004C005C006C007C000C00118
:0C048A00C0D075D000E51C700812043CC6
:0504960012013F80028D
:02049B00D2008D
:0E049D00D0D0D001D000D007D006D005D004BA
:0D04AB00D003D002D083D082D0F0D0E0D0BA
:0204B8002232EE
:0C04BA00C022C0E0C0F0C082C083C002BD
:0E04C600C003C004C005C006C007C000C001CE
:0E04D400C0D075D008C29885998275D00012EC
:0E04E20003BE75D008D0D0D001D000D007D016
:0E04F00006D005D004D003D002D083D082D035
:0604FE00F0D0E0D0223234
:0C050400C0E0C0F0C0D075D010C2CF0520
:0A0510001A75F005E51A84AAF074CC
:0A051A0014B51A08751A007580FF69
:02052400C2CA49
:05052600E518B512000C
:06052B004004D2B680027C
:02053100C2B650
:07053300D0D0D0F0D0E0327F
:07053A0012041E12042B1233
:05054100044E120462EB
:0E0546001200CE3090FA7582001200DD80F2B5
:0E0D5300C0F9A4B0999282F880908883C6A15E
:020D6100868E7C
:0A0D63006F766572737465700A0004
:0E0D6D0064697374616E6365203D20256463C4
:030D7B006D0A00FE
:0E0D7E0073656C6620636F6E74726F6C0A0092
:060554001205F7BC0003D4
:03055A0002066F27
:08055D00EF60FA30D502B2D1C3
:08056500E583B4FF03020685E3
:08056D00E582B4FF03020685DC
:0B057500258340072482400B02066F24
:080580002483145003020685D8
:0E058800F582EA8DF0A4A8F0EA8EF0A428F81F
:0E059600E435F0F9EB8DF0A428E935F0F9E436
:0E05A40033CA8FF0A429F9EA35F0FAEBF88E8D
:0E05B200F0A429F9EA35F0FAE433FBEC8DF001
:0E05C000A429F9EA35F0FAE43BFBE88FF0A439
:0E05CE002AFAEB35F0FBE433CCFD8EF0A42AC4
:0E05DC00FAEB35F0FBE43CFCED8FF0A42BFBBA
:0A05EA00EC35F0FC20E703120625B3
:0305F40002064EAE
:0D05F700AA82AB83A2F73392D16002D2F743
:0E060400F582ACF0E58124F9F8E6FD08E6FE8B
:0E0612000886F008E6A2F73392D56002D2F710
:05062000F583AFF0229C
:06006200E478FFF6D8FD72
:02062500780457
:0E062700EC700DC9CACBFCE58224F8F582D830
:02063500F122B0
:02063700782029
:0E06390020E7111582C3E933F9EA33FAEB33F7
:06064700FBEC33FCD8ECD3
:01064D00228A
:080040007900E94400601B7A1D
:0500480000900D977807
:03004D000075A09B
:0A00500000E493F2A308B8000205D3
:08005A00A0D9F4DAF275A0FF51
:080068007800E84400600A7909
:030070000075A078
:0600730000E4F309D8FCD3
:080079007800E84400600C79F6
:0B00810000900000E4F0A3D8FCD9FAC6
:06064E00B98003EA13B3BA
:0E0654004010EA2401FAE43BFBE43CFC5004B5
:040662007C80058211
:09066600BC000EBB000BBA000839
:08066F00E4F5F0F583F58222A9
:0E067700A2D1E582138CF092F78B838A822247
:0D068500E4F583F58275F080F4A2D1132214
:0B069200E4F583F58275F0C0747F2250
:06069D00C01E85811E1243
:0506A30000C5D01E227D
:0806A80085823285833385F061
:0506B00034E4F52FF514
:0506B5003075310085E5
:0306BA001D35905B
:0506BD00069D02078507
:0606C200C01E85811EE54B
:0706C8001E24FBF535E4F5EB
:0406CF002FF530F5DE
:0706D30031E51E24FBF8864F
:0606DA0032088633088699
:0506E0003490069D129C
:0506E5000785D01E2274
:0706EA00AA82C025C026C052
:0606F100277401C0E07453
:0606F70007C0E0C023C0B3
:0406FD00248A8222A7
:0A070100158115811581052DE4B561
:04070B002D02052E88
:01070F0022C7
:0B071000AA8274302AFA7439B5020086
:0C071B00500A74072AFA30010343022040
:050727008A820206EACF
:0E072C00E582FAC4540FF582C002120710D005
:09073A0002740F5AF58202071047
:0607430085823CAB28ACEE
:0407490029AD2AAEFE
:04074D002BAF2C752D
:020751003D2049
:0E075300EF2FFFEE235401FA4207EB2BFBECD5
:0C07610033FCED33FDEE33FEEFB53C0041
:0A076D004008EFC3953CFF43030171
:06077700D53DD98B288C52
:04077D00298D2A8E0A
:040781002B8F2C226C
:070785008582238583248592
:03078C002F258591
:03078F003026858C
:040792003127E4F532
:030796002DF52E10
:05079900AA32AB33ACF5
:0C079E00348A828B838CF0120C91FD7465
:0907AA00012AF532E43BF5338C21
:0807B30034EDFA7003020C7230
:0507BB00BA25028003D5
:0307C000020C6ABE
:0507C300C202C203C2E6
:0407C80004C205C2A0
:0407CC0006C207C298
:0407D00008C20975DD
:0807D40036007537007DFFAE11
:0407DC0032AF33AB5A
:0107E00034E4
:0E07E1008E828F838BF0120C91FAA3AE82AF42
:0607EF00838E328F338B74
:0B07F50034BA25078A821206EA8099B8
:050800008A04BC300079
:0908050040288A047439B504008E
:0C080E00401FBDFF11E53775F00AA42A59
:0A081A0024D0F53770C1D20380BD71
:0B082400ED75F00AA42A24D0FD80B27C
:0A082F00BA2E07BDFFAC7D0080A8C3
:050839008A04BC61000F
:09083E0040108A04747AB504002C
:0908470040075302DFD2018002D8
:02085000C201E3
:05085200BA20028055F0
:05085700BA2B02804BEA
:05085C00BA2D028041ED
:05086100BA4202804BC9
:05086600BA43028050BE
:06086B00BA4403020A1367
:06087100BA4603020A2949
:06087700BA4903020A1356
:05087D00BA4C028034BA
:06088200BA4F03020A1A3E
:06088800BA50030209AAA8
:05088E00BA5302804C8A
:06089300BA5503020A1F22
:06089900BA5803020A2414
:03089F00020A2D1D
:0508A200D2020207E193
:0508A700D2040207E18C
:0508AC00D2050207E186
:0508B100D2070207E17F
:0508B600D2080207E179
:0808BB0030070AE53514F88846
:0508C300358602800FE4
:0A08C800E53524FEF88835860308A4
:0508D2008604188B02F2
:0808D7008A821206EA020A36C9
:0A08DF00E53524FDF888358603088E
:0A08E900860408860618188B288C78
:0A08F300298E2A8B828C838EF0C0C0
:0E08FD0005120C79AB82AC83D005BDFF028BD7
:01090B0005E6
:07090C0020022CEBB53700BF
:090913005026E537C39BF537AC13
:01091C0037A3
:0C091D008C061C8C37EE6014758220C024
:0E09290003C004C0051206EAD005D004D003B6
:0209370080E45A
:020939008C37F9
:02093B008D0429
:07093D0085288285298385CE
:0C0944002AF0120C91FDFA602F8C051CAB
:0E095000C374808DF063F08095F050208A8291
:0C095E00C003C0041206EAD004D003ADB0
:04096A0028AE29AFDB
:06096E002A0DBD00010E80
:050974008D288E298F83
:030979002A80C110
:06097C00200203020A360E
:04098200EBB537009A
:050986004003020A36E7
:07098B00E537C39BF537AC13
:01099200372D
:0B0993008C051C8C37ED7003020A3449
:0C099E00758220C0041206EAD00480E933
:0A09AA00E53524FDF88835860508C0
:0A09B400860608860718188D288EA5
:0409BE00298F2AADA6
:0409C2002ABD8000CA
:0609C60040047A43801496
:0309CC00BD60000B
:0609CF0040047A50800B89
:0309D500BD400022
:0609D80040047A49800290
:0209DE007A5845
:0E09E0008A82C0021206EA75823A1206EA7591
:0E09EE0082301206EA7582781206EAD002BA4A
:0409FC004902800B21
:050A0000BA500280065F
:060A050085298212072C76
:080A0B0085288212072C8023CC
:070A1300D20675360A801CB3
:050A1A0075360880178D
:050A1F0075360A80128B
:050A2400753610800D85
:040A2900D209800965
:070A2D008A821206EA800232
:020A34008C37FD
:090A360030095AE53524FCF8886A
:0C0A3F0035860408860508860608860730
:080A4B001818188C288D298E63
:040A53002A8F2B7546
:030A5700288C7573
:030A5A00290D75EE
:020A5D002A80ED
:040A5F008528398528
:030A6300293A85A8
:050A66002A3B7401258C
:070A6B0039FFE4353AFCAD50
:040A72003B8F288C02
:040A7600298D2A8517
:060A7A003982853A8385F4
:0A0A80003BF0120C91FCFA70030227
:020A8A000799CA
:070A8C008A821206EA80CC09
:070A9300E53670030207992C
:040A9A007538433038
:070A9E00072BE53514F88871
:0A0AA50035E6FD3395E0FEFFFC8D01
:040AAF00288E298FD5
:040AB3002A8C2B203E
:0A0AB7000662AC287D007E007F007F
:050AC1008C288D298E38
:050AC6002A8F2B805077
:090ACB0030081FE53524FCF88811
:0C0AD4003586040886050886060886079B
:080AE0001818188C288D298ECE
:050AE8002A8F2B802E77
:0A0AED00E53524FEF888358604087C
:0C0AF700860518ED3395E0FEFF8C288D7D
:040B0300298E2A8F7E
:050B07002B200610ACDC
:080B0C0028AD297E007F008C5A
:040B1400288D298E71
:030B18002A8F2BF6
:060B1B00300625AC28ADF8
:040B210029AE2AE5EA
:0C0B25002BFF30E717C3E49CFCE49DFDAF
:0A0B3100E49EFEE49FFF8C288D294E
:060B3B008E2A8F2B8002C0
:020B4100C206EA
:060B4300D20AA8387C0074
:0A0B4900752C00853682C004C00040
:0B0B5300120743D000D004200A0DE57B
:0A0B5E002CC4FDE6FE4DF6188838A1
:020B6800800209
:020B6A00A62CB7
:080B6C000C8C03B20AE52845D8
:040B740029452A45A0
:080B78002B70CE88388C03E5D8
:060B800037700375370118
:0A0B8600200325200222EB04FCAD41
:010B9000372D
:040B9100ECB50500BA
:0E0B95005015758220C003C004C0051206EA88
:090BA300D005D004D0031D80E54B
:020BAC008D3783
:0C0BAE0030060E75822DC0031206EAD03E
:050BBA00031537802344
:0C0BBF00EB602030040E75822BC0031286
:080BCB0006EAD0031537800F84
:0C0BD30030050C758220C0031206EAD029
:030BDF00031537C4
:050BE200200225AC37E4
:090BE7008C051C8C37EBB50500F0
:090BF000502B3003047D3080021B
:020BF9007D205D
:0E0BFB008D82C003C0041206EAD004D003802D
:010C0900DD0D
:040C0A00EBB537000F
:0A0C0E005008E537C39BF537800757
:050C18007537008002A9
:020C1D008C3712
:020C1F00A838F3
:0A0C21008B041BEC6026B20A200AC7
:0B0C2B000A08E6C4540FFC8C2C800764
:070C36008604740F5CF52C2D
:0C0C3D00852C82C003C000120710D000FC
:040C4900D00380D480
:060C4D00200203020799DA
:020C5300AB37BD
:090C55008B041BEC7003020799EB
:0C0C5E00758220C0031206EAD00380EB70
:080C6A008A821206EA020799D2
:070C7200852D82852E8322EF
:0B0D8C003C4E4F20464C4F41543E00AF
:040C7900AA82AB831D
:080C7D00120C916003A380F842
:0C0C8500C3E5829AF582E5839BF583228B
:0300330075814391
:0A003600120CD3E582600302002ED5
:0E0C910020F71430F6148883A88220F507E6B9
:060C9F00A883758300220A
:030CA500E280F7F3
:030CA800E49322B0
:020CAB00E02245
:0B0CAD00E4AC82FBFAF97486020CC96B
:080CB8007F86120CD9F582229F
:090CC000FCABF0AA83A982749E2A
:020CC900C2D196
:080CCB00F58212062502064E17
:040CD3007582002204
:020CD7007F9EFE
:090CD900120D4130D10302066F37
:0E0CE200C3EF9582500974FFF5F0F583F5829B
:010CF00022E1
:050CF1007900120CFE69
:080CF60089828A838BF0EC2255
:090CFE006040F82582500274FFE9
:0E0D0700F582E824F8501ECCCBCAF9E4CC24C7
:0E0D1500F85014CBCAF9E4CB24F8500BCAF9FD
:090D2300E4CA24F850037900220F
:050D2C0024086010F82E
:0E0D3100C3EC13FCEB13FBEA13FAE913F9D839
:010D3F00F1C2
:010D40002290
:0D0D4100AA82AB83A2F73392D16002D2F7F1
:050D4E00F582ACF0226B
:00000001FF
